{
  "_format": "hh-sol-artifact-1",
  "contractName": "Vesting",
  "sourceName": "contracts/Vesting.sol",
  "abi": [
    {
      "inputs": [
        {
          "internalType": "contract IERC20",
          "name": "token_",
          "type": "address"
        }
      ],
      "stateMutability": "nonpayable",
      "type": "constructor"
    },
    {
      "inputs": [
        {
          "internalType": "uint256",
          "name": "duration",
          "type": "uint256"
        },
        {
          "internalType": "uint256",
          "name": "cliff",
          "type": "uint256"
        }
      ],
      "name": "DurationLessThanCliff",
      "type": "error"
    },
    {
      "inputs": [],
      "name": "Forbidden",
      "type": "error"
    },
    {
      "inputs": [],
      "name": "InsufficientAmount",
      "type": "error"
    },
    {
      "inputs": [
        {
          "internalType": "address",
          "name": "owner",
          "type": "address"
        }
      ],
      "name": "OwnableInvalidOwner",
      "type": "error"
    },
    {
      "inputs": [
        {
          "internalType": "address",
          "name": "account",
          "type": "address"
        }
      ],
      "name": "OwnableUnauthorizedAccount",
      "type": "error"
    },
    {
      "inputs": [],
      "name": "ReentrancyGuardReentrantCall",
      "type": "error"
    },
    {
      "inputs": [
        {
          "internalType": "address",
          "name": "token",
          "type": "address"
        }
      ],
      "name": "SafeERC20FailedOperation",
      "type": "error"
    },
    {
      "inputs": [],
      "name": "ScheduleNotRevocable",
      "type": "error"
    },
    {
      "inputs": [],
      "name": "ScheduleRevoked",
      "type": "error"
    },
    {
      "inputs": [],
      "name": "ZeroAmount",
      "type": "error"
    },
    {
      "inputs": [],
      "name": "ZeroDuration",
      "type": "error"
    },
    {
      "inputs": [],
      "name": "ZeroSlicePeriods",
      "type": "error"
    },
    {
      "inputs": [],
      "name": "ZeroTokenAddress",
      "type": "error"
    },
    {
      "anonymous": false,
      "inputs": [
        {
          "indexed": true,
          "internalType": "address",
          "name": "previousOwner",
          "type": "address"
        },
        {
          "indexed": true,
          "internalType": "address",
          "name": "newOwner",
          "type": "address"
        }
      ],
      "name": "OwnershipTransferred",
      "type": "event"
    },
    {
      "anonymous": false,
      "inputs": [
        {
          "indexed": true,
          "internalType": "address",
          "name": "benificiary",
          "type": "address"
        },
        {
          "indexed": false,
          "internalType": "uint256",
          "name": "start",
          "type": "uint256"
        },
        {
          "indexed": false,
          "internalType": "uint256",
          "name": "cliff",
          "type": "uint256"
        },
        {
          "indexed": false,
          "internalType": "uint256",
          "name": "duration",
          "type": "uint256"
        },
        {
          "indexed": false,
          "internalType": "uint256",
          "name": "slicePeriodSeconds",
          "type": "uint256"
        },
        {
          "indexed": false,
          "internalType": "bool",
          "name": "revocable",
          "type": "bool"
        },
        {
          "indexed": false,
          "internalType": "uint256",
          "name": "amount",
          "type": "uint256"
        },
        {
          "indexed": false,
          "internalType": "bytes32",
          "name": "vestingScheduleId",
          "type": "bytes32"
        }
      ],
      "name": "VestingScheduleCreated",
      "type": "event"
    },
    {
      "anonymous": false,
      "inputs": [
        {
          "indexed": true,
          "internalType": "bytes32",
          "name": "vestingScheduleId",
          "type": "bytes32"
        },
        {
          "indexed": false,
          "internalType": "uint256",
          "name": "amount",
          "type": "uint256"
        }
      ],
      "name": "VestingScheduleReleased",
      "type": "event"
    },
    {
      "anonymous": false,
      "inputs": [
        {
          "indexed": true,
          "internalType": "bytes32",
          "name": "vestingScheduleId",
          "type": "bytes32"
        }
      ],
      "name": "VestingScheduleRevoked",
      "type": "event"
    },
    {
      "inputs": [
        {
          "internalType": "bytes32",
          "name": "vestingScheduleId",
          "type": "bytes32"
        }
      ],
      "name": "computeReleasableAmount",
      "outputs": [
        {
          "internalType": "uint256",
          "name": "",
          "type": "uint256"
        }
      ],
      "stateMutability": "view",
      "type": "function"
    },
    {
      "inputs": [
        {
          "internalType": "address",
          "name": "_beneficiary",
          "type": "address"
        },
        {
          "internalType": "uint256",
          "name": "_start",
          "type": "uint256"
        },
        {
          "internalType": "uint256",
          "name": "_cliff",
          "type": "uint256"
        },
        {
          "internalType": "uint256",
          "name": "_duration",
          "type": "uint256"
        },
        {
          "internalType": "uint256",
          "name": "_slicePeriodSeconds",
          "type": "uint256"
        },
        {
          "internalType": "bool",
          "name": "_revocable",
          "type": "bool"
        },
        {
          "internalType": "uint256",
          "name": "_amount",
          "type": "uint256"
        }
      ],
      "name": "createVestingSchedule",
      "outputs": [
        {
          "internalType": "bytes32",
          "name": "",
          "type": "bytes32"
        }
      ],
      "stateMutability": "nonpayable",
      "type": "function"
    },
    {
      "inputs": [
        {
          "internalType": "address",
          "name": "holder",
          "type": "address"
        }
      ],
      "name": "getLastVestingScheduleForHolder",
      "outputs": [
        {
          "components": [
            {
              "internalType": "address",
              "name": "beneficiary",
              "type": "address"
            },
            {
              "internalType": "uint256",
              "name": "cliff",
              "type": "uint256"
            },
            {
              "internalType": "uint256",
              "name": "start",
              "type": "uint256"
            },
            {
              "internalType": "uint256",
              "name": "duration",
              "type": "uint256"
            },
            {
              "internalType": "uint256",
              "name": "slicePeriodSeconds",
              "type": "uint256"
            },
            {
              "internalType": "bool",
              "name": "revocable",
              "type": "bool"
            },
            {
              "internalType": "uint256",
              "name": "amountTotal",
              "type": "uint256"
            },
            {
              "internalType": "uint256",
              "name": "released",
              "type": "uint256"
            },
            {
              "internalType": "bool",
              "name": "revoked",
              "type": "bool"
            }
          ],
          "internalType": "struct Vesting.VestingSchedule",
          "name": "",
          "type": "tuple"
        }
      ],
      "stateMutability": "view",
      "type": "function"
    },
    {
      "inputs": [],
      "name": "getVestingSchedulesCount",
      "outputs": [
        {
          "internalType": "uint256",
          "name": "",
          "type": "uint256"
        }
      ],
      "stateMutability": "view",
      "type": "function"
    },
    {
      "inputs": [],
      "name": "getWithdrawableAmount",
      "outputs": [
        {
          "internalType": "uint256",
          "name": "",
          "type": "uint256"
        }
      ],
      "stateMutability": "view",
      "type": "function"
    },
    {
      "inputs": [
        {
          "internalType": "address",
          "name": "",
          "type": "address"
        }
      ],
      "name": "holdersVestingCount",
      "outputs": [
        {
          "internalType": "uint256",
          "name": "",
          "type": "uint256"
        }
      ],
      "stateMutability": "view",
      "type": "function"
    },
    {
      "inputs": [],
      "name": "owner",
      "outputs": [
        {
          "internalType": "address",
          "name": "",
          "type": "address"
        }
      ],
      "stateMutability": "view",
      "type": "function"
    },
    {
      "inputs": [
        {
          "internalType": "bytes32",
          "name": "vestingScheduleId",
          "type": "bytes32"
        },
        {
          "internalType": "uint256",
          "name": "amount",
          "type": "uint256"
        }
      ],
      "name": "release",
      "outputs": [],
      "stateMutability": "nonpayable",
      "type": "function"
    },
    {
      "inputs": [],
      "name": "renounceOwnership",
      "outputs": [],
      "stateMutability": "nonpayable",
      "type": "function"
    },
    {
      "inputs": [
        {
          "internalType": "bytes32",
          "name": "vestingScheduleId",
          "type": "bytes32"
        }
      ],
      "name": "revoke",
      "outputs": [],
      "stateMutability": "nonpayable",
      "type": "function"
    },
    {
      "inputs": [],
      "name": "token",
      "outputs": [
        {
          "internalType": "contract IERC20",
          "name": "",
          "type": "address"
        }
      ],
      "stateMutability": "view",
      "type": "function"
    },
    {
      "inputs": [
        {
          "internalType": "address",
          "name": "newOwner",
          "type": "address"
        }
      ],
      "name": "transferOwnership",
      "outputs": [],
      "stateMutability": "nonpayable",
      "type": "function"
    },
    {
      "inputs": [
        {
          "internalType": "bytes32",
          "name": "",
          "type": "bytes32"
        }
      ],
      "name": "vestingSchedules",
      "outputs": [
        {
          "internalType": "address",
          "name": "beneficiary",
          "type": "address"
        },
        {
          "internalType": "uint256",
          "name": "cliff",
          "type": "uint256"
        },
        {
          "internalType": "uint256",
          "name": "start",
          "type": "uint256"
        },
        {
          "internalType": "uint256",
          "name": "duration",
          "type": "uint256"
        },
        {
          "internalType": "uint256",
          "name": "slicePeriodSeconds",
          "type": "uint256"
        },
        {
          "internalType": "bool",
          "name": "revocable",
          "type": "bool"
        },
        {
          "internalType": "uint256",
          "name": "amountTotal",
          "type": "uint256"
        },
        {
          "internalType": "uint256",
          "name": "released",
          "type": "uint256"
        },
        {
          "internalType": "bool",
          "name": "revoked",
          "type": "bool"
        }
      ],
      "stateMutability": "view",
      "type": "function"
    },
    {
      "inputs": [
        {
          "internalType": "uint256",
          "name": "",
          "type": "uint256"
        }
      ],
      "name": "vestingSchedulesIds",
      "outputs": [
        {
          "internalType": "bytes32",
          "name": "",
          "type": "bytes32"
        }
      ],
      "stateMutability": "view",
      "type": "function"
    },
    {
      "inputs": [],
      "name": "vestingSchedulesTotalAmount",
      "outputs": [
        {
          "internalType": "uint256",
          "name": "",
          "type": "uint256"
        }
      ],
      "stateMutability": "view",
      "type": "function"
    },
    {
      "inputs": [
        {
          "internalType": "uint256",
          "name": "amount",
          "type": "uint256"
        }
      ],
      "name": "withdraw",
      "outputs": [],
      "stateMutability": "nonpayable",
      "type": "function"
    }
  ],
  "bytecode": "0x60a060405234801561001057600080fd5b5060405161220938038061220983398181016040528101906100329190610295565b33600073ffffffffffffffffffffffffffffffffffffffff168173ffffffffffffffffffffffffffffffffffffffff16036100a55760006040517f1e4fbdf700000000000000000000000000000000000000000000000000000000815260040161009c91906102d1565b60405180910390fd5b6100b48161015c60201b60201c565b5060018081905550600073ffffffffffffffffffffffffffffffffffffffff168173ffffffffffffffffffffffffffffffffffffffff1603610122576040517f6b093aad00000000000000000000000000000000000000000000000000000000815260040160405180910390fd5b8073ffffffffffffffffffffffffffffffffffffffff1660808173ffffffffffffffffffffffffffffffffffffffff1681525050506102ec565b60008060009054906101000a900473ffffffffffffffffffffffffffffffffffffffff169050816000806101000a81548173ffffffffffffffffffffffffffffffffffffffff021916908373ffffffffffffffffffffffffffffffffffffffff1602179055508173ffffffffffffffffffffffffffffffffffffffff168173ffffffffffffffffffffffffffffffffffffffff167f8be0079c531659141344cd1fd0a4f28419497f9722a3daafe3b4186f6b6457e060405160405180910390a35050565b600080fd5b600073ffffffffffffffffffffffffffffffffffffffff82169050919050565b600061025082610225565b9050919050565b600061026282610245565b9050919050565b61027281610257565b811461027d57600080fd5b50565b60008151905061028f81610269565b92915050565b6000602082840312156102ab576102aa610220565b5b60006102b984828501610280565b91505092915050565b6102cb81610245565b82525050565b60006020820190506102e660008301846102c2565b92915050565b608051611eed61031c6000396000818161077601528181610b2201528181610d6101526112260152611eed6000f3fe608060405234801561001057600080fd5b50600436106101005760003560e01c80638815e86211610097578063b75c7dc611610066578063b75c7dc6146102b7578063ea1bb3d5146102d3578063f2fde38b14610303578063fc0c546a1461031f57610100565b80638815e8621461022d5780638da5cb5b1461025d57806390be10cc1461027b5780639d8535ad1461029957610100565b806360417887116100d3578063604178871461019f57806366afd8ef146101d7578063715018a6146101f35780637e913dc6146101fd57610100565b8063130836171461010557806317e289e9146101235780632e1a7d4d14610153578063471121d11461016f575b600080fd5b61010d61033d565b60405161011a91906116fb565b60405180910390f35b61013d600480360381019061013891906117dd565b61034a565b60405161014a9190611898565b60405180910390f35b61016d600480360381019061016891906118b3565b61071e565b005b610189600480360381019061018491906118e0565b6107c5565b60405161019691906116fb565b60405180910390f35b6101b960048036038101906101b49190611939565b6107dd565b6040516101ce99989796959493929190611984565b60405180910390f35b6101f160048036038101906101ec9190611a11565b610865565b005b6101fb610baf565b005b610217600480360381019061021291906118e0565b610bc3565b6040516102249190611b35565b60405180910390f35b610247600480360381019061024291906118b3565b610d0d565b6040516102549190611898565b60405180910390f35b610265610d31565b6040516102729190611b51565b60405180910390f35b610283610d5a565b60405161029091906116fb565b60405180910390f35b6102a1610e08565b6040516102ae91906116fb565b60405180910390f35b6102d160048036038101906102cc9190611939565b610e0e565b005b6102ed60048036038101906102e89190611939565b611043565b6040516102fa91906116fb565b60405180910390f35b61031d600480360381019061031891906118e0565b61119e565b005b610327611224565b6040516103349190611bcb565b60405180910390f35b6000600280549050905090565b6000610354611248565b8161035d610d5a565b1015610395576040517f5945ea5600000000000000000000000000000000000000000000000000000000815260040160405180910390fd5b600085116103cf576040517f68d5686e00000000000000000000000000000000000000000000000000000000815260040160405180910390fd5b60008211610409576040517f1f2a200500000000000000000000000000000000000000000000000000000000815260040160405180910390fd5b6001841015610444576040517f223faddb00000000000000000000000000000000000000000000000000000000815260040160405180910390fd5b858510158587909161048d576040517fcc22956c000000000000000000000000000000000000000000000000000000008152600401610484929190611be6565b60405180910390fd5b5050600061049a896112cf565b9050600087896104aa9190611c3e565b90506040518061012001604052808b73ffffffffffffffffffffffffffffffffffffffff1681526020018281526020018a8152602001888152602001878152602001861515815260200185815260200160008152602001600015158152506003600084815260200190815260200160002060008201518160000160006101000a81548173ffffffffffffffffffffffffffffffffffffffff021916908373ffffffffffffffffffffffffffffffffffffffff1602179055506020820151816001015560408201518160020155606082015181600301556080820151816004015560a08201518160050160006101000a81548160ff02191690831515021790555060c0820151816006015560e082015181600701556101008201518160080160006101000a81548160ff021916908315150217905550905050836004546105f09190611c3e565b60048190555060028290806001815401808255809150506001900390600052602060002001600090919091909150556000600560008c73ffffffffffffffffffffffffffffffffffffffff1673ffffffffffffffffffffffffffffffffffffffff1681526020019081526020016000205490506001816106709190611c3e565b600560008d73ffffffffffffffffffffffffffffffffffffffff1673ffffffffffffffffffffffffffffffffffffffff168152602001908152602001600020819055508a73ffffffffffffffffffffffffffffffffffffffff167f7e3abb59a695a6390f51ccb4ee50e3a42d53c64566c0c9b42c3a45c21de677f58b8b8b8b8b8b8a6040516107059796959493929190611c72565b60405180910390a2829350505050979650505050505050565b610726611321565b61072e611248565b80610737610d5a565b101561076f576040517f5945ea5600000000000000000000000000000000000000000000000000000000815260040160405180910390fd5b6107ba33827f000000000000000000000000000000000000000000000000000000000000000073ffffffffffffffffffffffffffffffffffffffff166113679092919063ffffffff16565b6107c26113e6565b50565b60056020528060005260406000206000915090505481565b60036020528060005260406000206000915090508060000160009054906101000a900473ffffffffffffffffffffffffffffffffffffffff16908060010154908060020154908060030154908060040154908060050160009054906101000a900460ff16908060060154908060070154908060080160009054906101000a900460ff16905089565b61086d611321565b816003600082815260200190815260200160002060080160009054906101000a900460ff16156108c9576040517fc5551c3800000000000000000000000000000000000000000000000000000000815260040160405180910390fd5b600060036000858152602001908152602001600020905060008160000160009054906101000a900473ffffffffffffffffffffffffffffffffffffffff1673ffffffffffffffffffffffffffffffffffffffff163373ffffffffffffffffffffffffffffffffffffffff161490506000610941610d31565b73ffffffffffffffffffffffffffffffffffffffff163373ffffffffffffffffffffffffffffffffffffffff16149050818061097a5750805b6109b0576040517fee90c46800000000000000000000000000000000000000000000000000000000815260040160405180910390fd5b6000610a8f84604051806101200160405290816000820160009054906101000a900473ffffffffffffffffffffffffffffffffffffffff1673ffffffffffffffffffffffffffffffffffffffff1673ffffffffffffffffffffffffffffffffffffffff168152602001600182015481526020016002820154815260200160038201548152602001600482015481526020016005820160009054906101000a900460ff1615151515815260200160068201548152602001600782015481526020016008820160009054906101000a900460ff1615151515815250506113ef565b905085811015610acb576040517f5945ea5600000000000000000000000000000000000000000000000000000000815260040160405180910390fd5b858460070154610adb9190611c3e565b846007018190555085600454610af19190611ce1565b600481905550610b668460000160009054906101000a900473ffffffffffffffffffffffffffffffffffffffff16877f000000000000000000000000000000000000000000000000000000000000000073ffffffffffffffffffffffffffffffffffffffff166113679092919063ffffffff16565b867fb57ac13310650538a1fe17d58b799366937a1c2d560231c659309e9d65d73e0987604051610b9691906116fb565b60405180910390a25050505050610bab6113e6565b5050565b610bb7611248565b610bc160006114d3565b565b610bcb61167c565b60036000610c24846001600560008873ffffffffffffffffffffffffffffffffffffffff1673ffffffffffffffffffffffffffffffffffffffff16815260200190815260200160002054610c1f9190611ce1565b611597565b8152602001908152602001600020604051806101200160405290816000820160009054906101000a900473ffffffffffffffffffffffffffffffffffffffff1673ffffffffffffffffffffffffffffffffffffffff1673ffffffffffffffffffffffffffffffffffffffff168152602001600182015481526020016002820154815260200160038201548152602001600482015481526020016005820160009054906101000a900460ff1615151515815260200160068201548152602001600782015481526020016008820160009054906101000a900460ff1615151515815250509050919050565b60028181548110610d1d57600080fd5b906000526020600020016000915090505481565b60008060009054906101000a900473ffffffffffffffffffffffffffffffffffffffff16905090565b60006004547f000000000000000000000000000000000000000000000000000000000000000073ffffffffffffffffffffffffffffffffffffffff166370a08231306040518263ffffffff1660e01b8152600401610db89190611b51565b602060405180830381865afa158015610dd5573d6000803e3d6000fd5b505050506040513d601f19601f82011682018060405250810190610df99190611d2a565b610e039190611ce1565b905090565b60045481565b610e16611248565b806003600082815260200190815260200160002060080160009054906101000a900460ff1615610e72576040517fc5551c3800000000000000000000000000000000000000000000000000000000815260040160405180910390fd5b60006003600084815260200190815260200160002090508060050160009054906101000a900460ff16610ed1576040517f1cd4e9c200000000000000000000000000000000000000000000000000000000815260040160405180910390fd5b6000610fb082604051806101200160405290816000820160009054906101000a900473ffffffffffffffffffffffffffffffffffffffff1673ffffffffffffffffffffffffffffffffffffffff1673ffffffffffffffffffffffffffffffffffffffff168152602001600182015481526020016002820154815260200160038201548152602001600482015481526020016005820160009054906101000a900460ff1615151515815260200160068201548152602001600782015481526020016008820160009054906101000a900460ff1615151515815250506113ef565b90506000811115610fc657610fc58482610865565b5b600082600701548360060154610fdc9190611ce1565b905080600454610fec9190611ce1565b60048190555060018360080160006101000a81548160ff021916908315150217905550847fb75a59dfa7ea1e71b56ada696e1588c8cb0f9daa003585e715aa96e23a8799d860405160405180910390a25050505050565b6000816003600082815260200190815260200160002060080160009054906101000a900460ff16156110a1576040517fc5551c3800000000000000000000000000000000000000000000000000000000815260040160405180910390fd5b600060036000858152602001908152602001600020905061119581604051806101200160405290816000820160009054906101000a900473ffffffffffffffffffffffffffffffffffffffff1673ffffffffffffffffffffffffffffffffffffffff1673ffffffffffffffffffffffffffffffffffffffff168152602001600182015481526020016002820154815260200160038201548152602001600482015481526020016005820160009054906101000a900460ff1615151515815260200160068201548152602001600782015481526020016008820160009054906101000a900460ff1615151515815250506113ef565b92505050919050565b6111a6611248565b600073ffffffffffffffffffffffffffffffffffffffff168173ffffffffffffffffffffffffffffffffffffffff16036112185760006040517f1e4fbdf700000000000000000000000000000000000000000000000000000000815260040161120f9190611b51565b60405180910390fd5b611221816114d3565b50565b7f000000000000000000000000000000000000000000000000000000000000000081565b6112506115ca565b73ffffffffffffffffffffffffffffffffffffffff1661126e610d31565b73ffffffffffffffffffffffffffffffffffffffff16146112cd576112916115ca565b6040517f118cdaa70000000000000000000000000000000000000000000000000000000081526004016112c49190611b51565b60405180910390fd5b565b600061131a82600560008573ffffffffffffffffffffffffffffffffffffffff1673ffffffffffffffffffffffffffffffffffffffff16815260200190815260200160002054611597565b9050919050565b60026001540361135d576040517f3ee5aeb500000000000000000000000000000000000000000000000000000000815260040160405180910390fd5b6002600181905550565b6113e1838473ffffffffffffffffffffffffffffffffffffffff1663a9059cbb858560405160240161139a929190611d57565b604051602081830303815290604052915060e01b6020820180517bffffffffffffffffffffffffffffffffffffffffffffffffffffffff83818316178352505050506115d2565b505050565b60018081905550565b6000806113fa611674565b9050826020015181108061141057508261010001515b1561141f5760009150506114ce565b826060015183602001516114339190611c3e565b8110611455578260e001518360c0015161144d9190611ce1565b9150506114ce565b60008360200151826114679190611ce1565b9050600084608001519050600081836114809190611daf565b9050600082826114909190611de0565b905060008760600151828960c001516114a99190611de0565b6114b39190611daf565b90508760e00151816114c59190611ce1565b96505050505050505b919050565b60008060009054906101000a900473ffffffffffffffffffffffffffffffffffffffff169050816000806101000a81548173ffffffffffffffffffffffffffffffffffffffff021916908373ffffffffffffffffffffffffffffffffffffffff1602179055508173ffffffffffffffffffffffffffffffffffffffff168173ffffffffffffffffffffffffffffffffffffffff167f8be0079c531659141344cd1fd0a4f28419497f9722a3daafe3b4186f6b6457e060405160405180910390a35050565b600082826040516020016115ac929190611e8b565b60405160208183030381529060405280519060200120905092915050565b600033905090565b600080602060008451602086016000885af1806115f5576040513d6000823e3d81fd5b3d92506000519150506000821461161057600181141561162c565b60008473ffffffffffffffffffffffffffffffffffffffff163b145b1561166e57836040517f5274afe70000000000000000000000000000000000000000000000000000000081526004016116659190611b51565b60405180910390fd5b50505050565b600042905090565b604051806101200160405280600073ffffffffffffffffffffffffffffffffffffffff1681526020016000815260200160008152602001600081526020016000815260200160001515815260200160008152602001600081526020016000151581525090565b6000819050919050565b6116f5816116e2565b82525050565b600060208201905061171060008301846116ec565b92915050565b600080fd5b600073ffffffffffffffffffffffffffffffffffffffff82169050919050565b60006117468261171b565b9050919050565b6117568161173b565b811461176157600080fd5b50565b6000813590506117738161174d565b92915050565b611782816116e2565b811461178d57600080fd5b50565b60008135905061179f81611779565b92915050565b60008115159050919050565b6117ba816117a5565b81146117c557600080fd5b50565b6000813590506117d7816117b1565b92915050565b600080600080600080600060e0888a0312156117fc576117fb611716565b5b600061180a8a828b01611764565b975050602061181b8a828b01611790565b965050604061182c8a828b01611790565b955050606061183d8a828b01611790565b945050608061184e8a828b01611790565b93505060a061185f8a828b016117c8565b92505060c06118708a828b01611790565b91505092959891949750929550565b6000819050919050565b6118928161187f565b82525050565b60006020820190506118ad6000830184611889565b92915050565b6000602082840312156118c9576118c8611716565b5b60006118d784828501611790565b91505092915050565b6000602082840312156118f6576118f5611716565b5b600061190484828501611764565b91505092915050565b6119168161187f565b811461192157600080fd5b50565b6000813590506119338161190d565b92915050565b60006020828403121561194f5761194e611716565b5b600061195d84828501611924565b91505092915050565b61196f8161173b565b82525050565b61197e816117a5565b82525050565b60006101208201905061199a600083018c611966565b6119a7602083018b6116ec565b6119b4604083018a6116ec565b6119c160608301896116ec565b6119ce60808301886116ec565b6119db60a0830187611975565b6119e860c08301866116ec565b6119f560e08301856116ec565b611a03610100830184611975565b9a9950505050505050505050565b60008060408385031215611a2857611a27611716565b5b6000611a3685828601611924565b9250506020611a4785828601611790565b9150509250929050565b611a5a8161173b565b82525050565b611a69816116e2565b82525050565b611a78816117a5565b82525050565b61012082016000820151611a956000850182611a51565b506020820151611aa86020850182611a60565b506040820151611abb6040850182611a60565b506060820151611ace6060850182611a60565b506080820151611ae16080850182611a60565b5060a0820151611af460a0850182611a6f565b5060c0820151611b0760c0850182611a60565b5060e0820151611b1a60e0850182611a60565b50610100820151611b2f610100850182611a6f565b50505050565b600061012082019050611b4b6000830184611a7e565b92915050565b6000602082019050611b666000830184611966565b92915050565b6000819050919050565b6000611b91611b8c611b878461171b565b611b6c565b61171b565b9050919050565b6000611ba382611b76565b9050919050565b6000611bb582611b98565b9050919050565b611bc581611baa565b82525050565b6000602082019050611be06000830184611bbc565b92915050565b6000604082019050611bfb60008301856116ec565b611c0860208301846116ec565b9392505050565b7f4e487b7100000000000000000000000000000000000000000000000000000000600052601160045260246000fd5b6000611c49826116e2565b9150611c54836116e2565b9250828201905080821115611c6c57611c6b611c0f565b5b92915050565b600060e082019050611c87600083018a6116ec565b611c9460208301896116ec565b611ca160408301886116ec565b611cae60608301876116ec565b611cbb6080830186611975565b611cc860a08301856116ec565b611cd560c0830184611889565b98975050505050505050565b6000611cec826116e2565b9150611cf7836116e2565b9250828203905081811115611d0f57611d0e611c0f565b5b92915050565b600081519050611d2481611779565b92915050565b600060208284031215611d4057611d3f611716565b5b6000611d4e84828501611d15565b91505092915050565b6000604082019050611d6c6000830185611966565b611d7960208301846116ec565b9392505050565b7f4e487b7100000000000000000000000000000000000000000000000000000000600052601260045260246000fd5b6000611dba826116e2565b9150611dc5836116e2565b925082611dd557611dd4611d80565b5b828204905092915050565b6000611deb826116e2565b9150611df6836116e2565b9250828202611e04816116e2565b91508282048414831517611e1b57611e1a611c0f565b5b5092915050565b60008160601b9050919050565b6000611e3a82611e22565b9050919050565b6000611e4c82611e2f565b9050919050565b611e64611e5f8261173b565b611e41565b82525050565b6000819050919050565b611e85611e80826116e2565b611e6a565b82525050565b6000611e978285611e53565b601482019150611ea78284611e74565b602082019150819050939250505056fea264697066735822122013d5d2e19278db4db28f5bf1e58fcc6870c35d043a23270ea5fa9bf95850387364736f6c634300081b0033",
  "linkReferences": {},
  "deployedLinkReferences": {}
}