{
  "_format": "hh-sol-artifact-1",
  "contractName": "IOSToken",
  "sourceName": "contracts/IOSToken.sol",
  "abi": [
    {
      "inputs": [
        {
          "internalType": "address",
          "name": "_receiver",
          "type": "address"
        }
      ],
      "stateMutability": "nonpayable",
      "type": "constructor"
    },
    {
      "inputs": [
        {
          "internalType": "uint256",
          "name": "increasedSupply",
          "type": "uint256"
        },
        {
          "internalType": "uint256",
          "name": "cap",
          "type": "uint256"
        }
      ],
      "name": "ERC20ExceededCap",
      "type": "error"
    },
    {
      "inputs": [
        {
          "internalType": "address",
          "name": "spender",
          "type": "address"
        },
        {
          "internalType": "uint256",
          "name": "allowance",
          "type": "uint256"
        },
        {
          "internalType": "uint256",
          "name": "needed",
          "type": "uint256"
        }
      ],
      "name": "ERC20InsufficientAllowance",
      "type": "error"
    },
    {
      "inputs": [
        {
          "internalType": "address",
          "name": "sender",
          "type": "address"
        },
        {
          "internalType": "uint256",
          "name": "balance",
          "type": "uint256"
        },
        {
          "internalType": "uint256",
          "name": "needed",
          "type": "uint256"
        }
      ],
      "name": "ERC20InsufficientBalance",
      "type": "error"
    },
    {
      "inputs": [
        {
          "internalType": "address",
          "name": "approver",
          "type": "address"
        }
      ],
      "name": "ERC20InvalidApprover",
      "type": "error"
    },
    {
      "inputs": [
        {
          "internalType": "uint256",
          "name": "cap",
          "type": "uint256"
        }
      ],
      "name": "ERC20InvalidCap",
      "type": "error"
    },
    {
      "inputs": [
        {
          "internalType": "address",
          "name": "receiver",
          "type": "address"
        }
      ],
      "name": "ERC20InvalidReceiver",
      "type": "error"
    },
    {
      "inputs": [
        {
          "internalType": "address",
          "name": "sender",
          "type": "address"
        }
      ],
      "name": "ERC20InvalidSender",
      "type": "error"
    },
    {
      "inputs": [
        {
          "internalType": "address",
          "name": "spender",
          "type": "address"
        }
      ],
      "name": "ERC20InvalidSpender",
      "type": "error"
    },
    {
      "inputs": [
        {
          "internalType": "address",
          "name": "owner",
          "type": "address"
        }
      ],
      "name": "OwnableInvalidOwner",
      "type": "error"
    },
    {
      "inputs": [
        {
          "internalType": "address",
          "name": "account",
          "type": "address"
        }
      ],
      "name": "OwnableUnauthorizedAccount",
      "type": "error"
    },
    {
      "anonymous": false,
      "inputs": [
        {
          "indexed": true,
          "internalType": "address",
          "name": "owner",
          "type": "address"
        },
        {
          "indexed": true,
          "internalType": "address",
          "name": "spender",
          "type": "address"
        },
        {
          "indexed": false,
          "internalType": "uint256",
          "name": "value",
          "type": "uint256"
        }
      ],
      "name": "Approval",
      "type": "event"
    },
    {
      "anonymous": false,
      "inputs": [
        {
          "indexed": true,
          "internalType": "address",
          "name": "previousOwner",
          "type": "address"
        },
        {
          "indexed": true,
          "internalType": "address",
          "name": "newOwner",
          "type": "address"
        }
      ],
      "name": "OwnershipTransferred",
      "type": "event"
    },
    {
      "anonymous": false,
      "inputs": [
        {
          "indexed": true,
          "internalType": "address",
          "name": "from",
          "type": "address"
        },
        {
          "indexed": true,
          "internalType": "address",
          "name": "to",
          "type": "address"
        },
        {
          "indexed": false,
          "internalType": "uint256",
          "name": "value",
          "type": "uint256"
        }
      ],
      "name": "Transfer",
      "type": "event"
    },
    {
      "inputs": [
        {
          "internalType": "address",
          "name": "owner",
          "type": "address"
        },
        {
          "internalType": "address",
          "name": "spender",
          "type": "address"
        }
      ],
      "name": "allowance",
      "outputs": [
        {
          "internalType": "uint256",
          "name": "",
          "type": "uint256"
        }
      ],
      "stateMutability": "view",
      "type": "function"
    },
    {
      "inputs": [
        {
          "internalType": "address",
          "name": "spender",
          "type": "address"
        },
        {
          "internalType": "uint256",
          "name": "value",
          "type": "uint256"
        }
      ],
      "name": "approve",
      "outputs": [
        {
          "internalType": "bool",
          "name": "",
          "type": "bool"
        }
      ],
      "stateMutability": "nonpayable",
      "type": "function"
    },
    {
      "inputs": [
        {
          "internalType": "address",
          "name": "account",
          "type": "address"
        }
      ],
      "name": "balanceOf",
      "outputs": [
        {
          "internalType": "uint256",
          "name": "",
          "type": "uint256"
        }
      ],
      "stateMutability": "view",
      "type": "function"
    },
    {
      "inputs": [
        {
          "internalType": "uint256",
          "name": "value",
          "type": "uint256"
        }
      ],
      "name": "burn",
      "outputs": [],
      "stateMutability": "nonpayable",
      "type": "function"
    },
    {
      "inputs": [
        {
          "internalType": "address",
          "name": "account",
          "type": "address"
        },
        {
          "internalType": "uint256",
          "name": "value",
          "type": "uint256"
        }
      ],
      "name": "burnFrom",
      "outputs": [],
      "stateMutability": "nonpayable",
      "type": "function"
    },
    {
      "inputs": [],
      "name": "cap",
      "outputs": [
        {
          "internalType": "uint256",
          "name": "",
          "type": "uint256"
        }
      ],
      "stateMutability": "view",
      "type": "function"
    },
    {
      "inputs": [],
      "name": "decimals",
      "outputs": [
        {
          "internalType": "uint8",
          "name": "",
          "type": "uint8"
        }
      ],
      "stateMutability": "view",
      "type": "function"
    },
    {
      "inputs": [
        {
          "internalType": "address",
          "name": "_account",
          "type": "address"
        },
        {
          "internalType": "uint256",
          "name": "_amount",
          "type": "uint256"
        }
      ],
      "name": "mint",
      "outputs": [],
      "stateMutability": "nonpayable",
      "type": "function"
    },
    {
      "inputs": [],
      "name": "name",
      "outputs": [
        {
          "internalType": "string",
          "name": "",
          "type": "string"
        }
      ],
      "stateMutability": "view",
      "type": "function"
    },
    {
      "inputs": [],
      "name": "owner",
      "outputs": [
        {
          "internalType": "address",
          "name": "",
          "type": "address"
        }
      ],
      "stateMutability": "view",
      "type": "function"
    },
    {
      "inputs": [],
      "name": "renounceOwnership",
      "outputs": [],
      "stateMutability": "nonpayable",
      "type": "function"
    },
    {
      "inputs": [],
      "name": "symbol",
      "outputs": [
        {
          "internalType": "string",
          "name": "",
          "type": "string"
        }
      ],
      "stateMutability": "view",
      "type": "function"
    },
    {
      "inputs": [],
      "name": "totalSupply",
      "outputs": [
        {
          "internalType": "uint256",
          "name": "",
          "type": "uint256"
        }
      ],
      "stateMutability": "view",
      "type": "function"
    },
    {
      "inputs": [
        {
          "internalType": "address",
          "name": "to",
          "type": "address"
        },
        {
          "internalType": "uint256",
          "name": "value",
          "type": "uint256"
        }
      ],
      "name": "transfer",
      "outputs": [
        {
          "internalType": "bool",
          "name": "",
          "type": "bool"
        }
      ],
      "stateMutability": "nonpayable",
      "type": "function"
    },
    {
      "inputs": [
        {
          "internalType": "address",
          "name": "from",
          "type": "address"
        },
        {
          "internalType": "address",
          "name": "to",
          "type": "address"
        },
        {
          "internalType": "uint256",
          "name": "value",
          "type": "uint256"
        }
      ],
      "name": "transferFrom",
      "outputs": [
        {
          "internalType": "bool",
          "name": "",
          "type": "bool"
        }
      ],
      "stateMutability": "nonpayable",
      "type": "function"
    },
    {
      "inputs": [
        {
          "internalType": "address",
          "name": "newOwner",
          "type": "address"
        }
      ],
      "name": "transferOwnership",
      "outputs": [],
      "stateMutability": "nonpayable",
      "type": "function"
    }
  ],
  "bytecode": "0x60a060405234801561001057600080fd5b50604051612048380380612048833981810160405281019061003291906106e9565b336c0122ce41502f4d1569900000006040518060400160405280600881526020017f494f53546f6b656e0000000000000000000000000000000000000000000000008152506040518060400160405280600481526020017f494f53540000000000000000000000000000000000000000000000000000000081525081600390816100bc9190610966565b5080600490816100cc9190610966565b505050600081036101155760006040517f392e1e2700000000000000000000000000000000000000000000000000000000815260040161010c9190610a73565b60405180910390fd5b806080818152505050600073ffffffffffffffffffffffffffffffffffffffff168173ffffffffffffffffffffffffffffffffffffffff16036101905760006040517f1e4fbdf70000000000000000000000000000000000000000000000000000000081526004016101879190610a9d565b60405180910390fd5b61019f8161023160201b60201c565b50600073ffffffffffffffffffffffffffffffffffffffff168173ffffffffffffffffffffffffffffffffffffffff160361020f576040517f08c379a000000000000000000000000000000000000000000000000000000000815260040161020690610b15565b60405180910390fd5b61022b816b44e37d9bde9aae08480000006102f760201b60201c565b50610c22565b6000600560009054906101000a900473ffffffffffffffffffffffffffffffffffffffff16905081600560006101000a81548173ffffffffffffffffffffffffffffffffffffffff021916908373ffffffffffffffffffffffffffffffffffffffff1602179055508173ffffffffffffffffffffffffffffffffffffffff168173ffffffffffffffffffffffffffffffffffffffff167f8be0079c531659141344cd1fd0a4f28419497f9722a3daafe3b4186f6b6457e060405160405180910390a35050565b600073ffffffffffffffffffffffffffffffffffffffff168273ffffffffffffffffffffffffffffffffffffffff16036103695760006040517fec442f050000000000000000000000000000000000000000000000000000000081526004016103609190610a9d565b60405180910390fd5b61037b6000838361037f60201b60201c565b5050565b61039083838361039560201b60201c565b505050565b6103a683838361044d60201b60201c565b600073ffffffffffffffffffffffffffffffffffffffff168373ffffffffffffffffffffffffffffffffffffffff16036104485760006103ea61067260201b60201c565b905060006103fc61067c60201b60201c565b9050818111156104455780826040517f9e79f85400000000000000000000000000000000000000000000000000000000815260040161043c929190610b44565b60405180910390fd5b50505b505050565b600073ffffffffffffffffffffffffffffffffffffffff168373ffffffffffffffffffffffffffffffffffffffff160361049f5780600260008282546104939190610b9c565b92505081905550610572565b60008060008573ffffffffffffffffffffffffffffffffffffffff1673ffffffffffffffffffffffffffffffffffffffff1681526020019081526020016000205490508181101561052b578381836040517fe450d38c00000000000000000000000000000000000000000000000000000000815260040161052293929190610bd0565b60405180910390fd5b8181036000808673ffffffffffffffffffffffffffffffffffffffff1673ffffffffffffffffffffffffffffffffffffffff16815260200190815260200160002081905550505b600073ffffffffffffffffffffffffffffffffffffffff168273ffffffffffffffffffffffffffffffffffffffff16036105bb5780600260008282540392505081905550610608565b806000808473ffffffffffffffffffffffffffffffffffffffff1673ffffffffffffffffffffffffffffffffffffffff168152602001908152602001600020600082825401925050819055505b8173ffffffffffffffffffffffffffffffffffffffff168373ffffffffffffffffffffffffffffffffffffffff167fddf252ad1be2c89b69c2b068fc378daa952ba7f163c4a11628f55a4df523b3ef836040516106659190610c07565b60405180910390a3505050565b6000608051905090565b6000600254905090565b600080fd5b600073ffffffffffffffffffffffffffffffffffffffff82169050919050565b60006106b68261068b565b9050919050565b6106c6816106ab565b81146106d157600080fd5b50565b6000815190506106e3816106bd565b92915050565b6000602082840312156106ff576106fe610686565b5b600061070d848285016106d4565b91505092915050565b600081519050919050565b7f4e487b7100000000000000000000000000000000000000000000000000000000600052604160045260246000fd5b7f4e487b7100000000000000000000000000000000000000000000000000000000600052602260045260246000fd5b6000600282049050600182168061079757607f821691505b6020821081036107aa576107a9610750565b5b50919050565b60008190508160005260206000209050919050565b60006020601f8301049050919050565b600082821b905092915050565b6000600883026108127fffffffffffffffffffffffffffffffffffffffffffffffffffffffffffffffff826107d5565b61081c86836107d5565b95508019841693508086168417925050509392505050565b6000819050919050565b6000819050919050565b600061086361085e61085984610834565b61083e565b610834565b9050919050565b6000819050919050565b61087d83610848565b6108916108898261086a565b8484546107e2565b825550505050565b600090565b6108a6610899565b6108b1818484610874565b505050565b5b818110156108d5576108ca60008261089e565b6001810190506108b7565b5050565b601f82111561091a576108eb816107b0565b6108f4846107c5565b81016020851015610903578190505b61091761090f856107c5565b8301826108b6565b50505b505050565b600082821c905092915050565b600061093d6000198460080261091f565b1980831691505092915050565b6000610956838361092c565b9150826002028217905092915050565b61096f82610716565b67ffffffffffffffff81111561098857610987610721565b5b610992825461077f565b61099d8282856108d9565b600060209050601f8311600181146109d057600084156109be578287015190505b6109c8858261094a565b865550610a30565b601f1984166109de866107b0565b60005b82811015610a06578489015182556001820191506020850194506020810190506109e1565b86831015610a235784890151610a1f601f89168261092c565b8355505b6001600288020188555050505b505050505050565b6000819050919050565b6000610a5d610a58610a5384610a38565b61083e565b610834565b9050919050565b610a6d81610a42565b82525050565b6000602082019050610a886000830184610a64565b92915050565b610a97816106ab565b82525050565b6000602082019050610ab26000830184610a8e565b92915050565b600082825260208201905092915050565b7f496e76616c696420726563656976657220616464726573730000000000000000600082015250565b6000610aff601883610ab8565b9150610b0a82610ac9565b602082019050919050565b60006020820190508181036000830152610b2e81610af2565b9050919050565b610b3e81610834565b82525050565b6000604082019050610b596000830185610b35565b610b666020830184610b35565b9392505050565b7f4e487b7100000000000000000000000000000000000000000000000000000000600052601160045260246000fd5b6000610ba782610834565b9150610bb283610834565b9250828201905080821115610bca57610bc9610b6d565b5b92915050565b6000606082019050610be56000830186610a8e565b610bf26020830185610b35565b610bff6040830184610b35565b949350505050565b6000602082019050610c1c6000830184610b35565b92915050565b60805161140b610c3d600039600061041e015261140b6000f3fe608060405234801561001057600080fd5b50600436106101005760003560e01c806370a082311161009757806395d89b411161006657806395d89b4114610289578063a9059cbb146102a7578063dd62ed3e146102d7578063f2fde38b1461030757610100565b806370a0823114610215578063715018a61461024557806379cc67901461024f5780638da5cb5b1461026b57610100565b8063313ce567116100d3578063313ce567146101a1578063355274ea146101bf57806340c10f19146101dd57806342966c68146101f957610100565b806306fdde0314610105578063095ea7b31461012357806318160ddd1461015357806323b872dd14610171575b600080fd5b61010d610323565b60405161011a9190611009565b60405180910390f35b61013d600480360381019061013891906110c4565b6103b5565b60405161014a919061111f565b60405180910390f35b61015b6103d8565b6040516101689190611149565b60405180910390f35b61018b60048036038101906101869190611164565b6103e2565b604051610198919061111f565b60405180910390f35b6101a9610411565b6040516101b691906111d3565b60405180910390f35b6101c761041a565b6040516101d49190611149565b60405180910390f35b6101f760048036038101906101f291906110c4565b610442565b005b610213600480360381019061020e91906111ee565b610458565b005b61022f600480360381019061022a919061121b565b61046c565b60405161023c9190611149565b60405180910390f35b61024d6104b4565b005b610269600480360381019061026491906110c4565b6104c8565b005b6102736104e8565b6040516102809190611257565b60405180910390f35b610291610512565b60405161029e9190611009565b60405180910390f35b6102c160048036038101906102bc91906110c4565b6105a4565b6040516102ce919061111f565b60405180910390f35b6102f160048036038101906102ec9190611272565b6105c7565b6040516102fe9190611149565b60405180910390f35b610321600480360381019061031c919061121b565b61064e565b005b606060038054610332906112e1565b80601f016020809104026020016040519081016040528092919081815260200182805461035e906112e1565b80156103ab5780601f10610380576101008083540402835291602001916103ab565b820191906000526020600020905b81548152906001019060200180831161038e57829003601f168201915b5050505050905090565b6000806103c06106d4565b90506103cd8185856106dc565b600191505092915050565b6000600254905090565b6000806103ed6106d4565b90506103fa8582856106ee565b610405858585610782565b60019150509392505050565b60006012905090565b60007f0000000000000000000000000000000000000000000000000000000000000000905090565b61044a610876565b61045482826108fd565b5050565b6104696104636106d4565b8261097f565b50565b60008060008373ffffffffffffffffffffffffffffffffffffffff1673ffffffffffffffffffffffffffffffffffffffff168152602001908152602001600020549050919050565b6104bc610876565b6104c66000610a01565b565b6104da826104d46106d4565b836106ee565b6104e4828261097f565b5050565b6000600560009054906101000a900473ffffffffffffffffffffffffffffffffffffffff16905090565b606060048054610521906112e1565b80601f016020809104026020016040519081016040528092919081815260200182805461054d906112e1565b801561059a5780601f1061056f5761010080835404028352916020019161059a565b820191906000526020600020905b81548152906001019060200180831161057d57829003601f168201915b5050505050905090565b6000806105af6106d4565b90506105bc818585610782565b600191505092915050565b6000600160008473ffffffffffffffffffffffffffffffffffffffff1673ffffffffffffffffffffffffffffffffffffffff16815260200190815260200160002060008373ffffffffffffffffffffffffffffffffffffffff1673ffffffffffffffffffffffffffffffffffffffff16815260200190815260200160002054905092915050565b610656610876565b600073ffffffffffffffffffffffffffffffffffffffff168173ffffffffffffffffffffffffffffffffffffffff16036106c85760006040517f1e4fbdf70000000000000000000000000000000000000000000000000000000081526004016106bf9190611257565b60405180910390fd5b6106d181610a01565b50565b600033905090565b6106e98383836001610ac7565b505050565b60006106fa84846105c7565b90507fffffffffffffffffffffffffffffffffffffffffffffffffffffffffffffffff811461077c578181101561076c578281836040517ffb8f41b200000000000000000000000000000000000000000000000000000000815260040161076393929190611312565b60405180910390fd5b61077b84848484036000610ac7565b5b50505050565b600073ffffffffffffffffffffffffffffffffffffffff168373ffffffffffffffffffffffffffffffffffffffff16036107f45760006040517f96c6fd1e0000000000000000000000000000000000000000000000000000000081526004016107eb9190611257565b60405180910390fd5b600073ffffffffffffffffffffffffffffffffffffffff168273ffffffffffffffffffffffffffffffffffffffff16036108665760006040517fec442f0500000000000000000000000000000000000000000000000000000000815260040161085d9190611257565b60405180910390fd5b610871838383610c9e565b505050565b61087e6106d4565b73ffffffffffffffffffffffffffffffffffffffff1661089c6104e8565b73ffffffffffffffffffffffffffffffffffffffff16146108fb576108bf6106d4565b6040517f118cdaa70000000000000000000000000000000000000000000000000000000081526004016108f29190611257565b60405180910390fd5b565b600073ffffffffffffffffffffffffffffffffffffffff168273ffffffffffffffffffffffffffffffffffffffff160361096f5760006040517fec442f050000000000000000000000000000000000000000000000000000000081526004016109669190611257565b60405180910390fd5b61097b60008383610c9e565b5050565b600073ffffffffffffffffffffffffffffffffffffffff168273ffffffffffffffffffffffffffffffffffffffff16036109f15760006040517f96c6fd1e0000000000000000000000000000000000000000000000000000000081526004016109e89190611257565b60405180910390fd5b6109fd82600083610c9e565b5050565b6000600560009054906101000a900473ffffffffffffffffffffffffffffffffffffffff16905081600560006101000a81548173ffffffffffffffffffffffffffffffffffffffff021916908373ffffffffffffffffffffffffffffffffffffffff1602179055508173ffffffffffffffffffffffffffffffffffffffff168173ffffffffffffffffffffffffffffffffffffffff167f8be0079c531659141344cd1fd0a4f28419497f9722a3daafe3b4186f6b6457e060405160405180910390a35050565b600073ffffffffffffffffffffffffffffffffffffffff168473ffffffffffffffffffffffffffffffffffffffff1603610b395760006040517fe602df05000000000000000000000000000000000000000000000000000000008152600401610b309190611257565b60405180910390fd5b600073ffffffffffffffffffffffffffffffffffffffff168373ffffffffffffffffffffffffffffffffffffffff1603610bab5760006040517f94280d62000000000000000000000000000000000000000000000000000000008152600401610ba29190611257565b60405180910390fd5b81600160008673ffffffffffffffffffffffffffffffffffffffff1673ffffffffffffffffffffffffffffffffffffffff16815260200190815260200160002060008573ffffffffffffffffffffffffffffffffffffffff1673ffffffffffffffffffffffffffffffffffffffff168152602001908152602001600020819055508015610c98578273ffffffffffffffffffffffffffffffffffffffff168473ffffffffffffffffffffffffffffffffffffffff167f8c5be1e5ebec7d5bd14f71427d1e84f3dd0314c0f7b2291e5b200ac8c7c3b92584604051610c8f9190611149565b60405180910390a35b50505050565b610ca9838383610cae565b505050565b610cb9838383610d54565b600073ffffffffffffffffffffffffffffffffffffffff168373ffffffffffffffffffffffffffffffffffffffff1603610d4f576000610cf761041a565b90506000610d036103d8565b905081811115610d4c5780826040517f9e79f854000000000000000000000000000000000000000000000000000000008152600401610d43929190611349565b60405180910390fd5b50505b505050565b600073ffffffffffffffffffffffffffffffffffffffff168373ffffffffffffffffffffffffffffffffffffffff1603610da6578060026000828254610d9a91906113a1565b92505081905550610e79565b60008060008573ffffffffffffffffffffffffffffffffffffffff1673ffffffffffffffffffffffffffffffffffffffff16815260200190815260200160002054905081811015610e32578381836040517fe450d38c000000000000000000000000000000000000000000000000000000008152600401610e2993929190611312565b60405180910390fd5b8181036000808673ffffffffffffffffffffffffffffffffffffffff1673ffffffffffffffffffffffffffffffffffffffff16815260200190815260200160002081905550505b600073ffffffffffffffffffffffffffffffffffffffff168273ffffffffffffffffffffffffffffffffffffffff1603610ec25780600260008282540392505081905550610f0f565b806000808473ffffffffffffffffffffffffffffffffffffffff1673ffffffffffffffffffffffffffffffffffffffff168152602001908152602001600020600082825401925050819055505b8173ffffffffffffffffffffffffffffffffffffffff168373ffffffffffffffffffffffffffffffffffffffff167fddf252ad1be2c89b69c2b068fc378daa952ba7f163c4a11628f55a4df523b3ef83604051610f6c9190611149565b60405180910390a3505050565b600081519050919050565b600082825260208201905092915050565b60005b83811015610fb3578082015181840152602081019050610f98565b60008484015250505050565b6000601f19601f8301169050919050565b6000610fdb82610f79565b610fe58185610f84565b9350610ff5818560208601610f95565b610ffe81610fbf565b840191505092915050565b600060208201905081810360008301526110238184610fd0565b905092915050565b600080fd5b600073ffffffffffffffffffffffffffffffffffffffff82169050919050565b600061105b82611030565b9050919050565b61106b81611050565b811461107657600080fd5b50565b60008135905061108881611062565b92915050565b6000819050919050565b6110a18161108e565b81146110ac57600080fd5b50565b6000813590506110be81611098565b92915050565b600080604083850312156110db576110da61102b565b5b60006110e985828601611079565b92505060206110fa858286016110af565b9150509250929050565b60008115159050919050565b61111981611104565b82525050565b60006020820190506111346000830184611110565b92915050565b6111438161108e565b82525050565b600060208201905061115e600083018461113a565b92915050565b60008060006060848603121561117d5761117c61102b565b5b600061118b86828701611079565b935050602061119c86828701611079565b92505060406111ad868287016110af565b9150509250925092565b600060ff82169050919050565b6111cd816111b7565b82525050565b60006020820190506111e860008301846111c4565b92915050565b6000602082840312156112045761120361102b565b5b6000611212848285016110af565b91505092915050565b6000602082840312156112315761123061102b565b5b600061123f84828501611079565b91505092915050565b61125181611050565b82525050565b600060208201905061126c6000830184611248565b92915050565b600080604083850312156112895761128861102b565b5b600061129785828601611079565b92505060206112a885828601611079565b9150509250929050565b7f4e487b7100000000000000000000000000000000000000000000000000000000600052602260045260246000fd5b600060028204905060018216806112f957607f821691505b60208210810361130c5761130b6112b2565b5b50919050565b60006060820190506113276000830186611248565b611334602083018561113a565b611341604083018461113a565b949350505050565b600060408201905061135e600083018561113a565b61136b602083018461113a565b9392505050565b7f4e487b7100000000000000000000000000000000000000000000000000000000600052601160045260246000fd5b60006113ac8261108e565b91506113b78361108e565b92508282019050808211156113cf576113ce611372565b5b9291505056fea26469706673582212207016e083f64654e7e03ec0660cf77283e1d10fe7e45d8c62f5234e42298911f164736f6c634300081b0033",
  "linkReferences": {},
  "deployedLinkReferences": {}
}